{
  "contractName": "Sample",
  "abi": [
    {
      "constant": true,
      "inputs": [
        {
          "name": "",
          "type": "uint256"
        }
      ],
      "name": "agreements",
      "outputs": [
        {
          "name": "id",
          "type": "uint256"
        },
        {
          "name": "content",
          "type": "string"
        },
        {
          "name": "completed",
          "type": "bool"
        }
      ],
      "payable": false,
      "stateMutability": "view",
      "type": "function",
      "signature": "0xbd14de96"
    },
    {
      "constant": true,
      "inputs": [],
      "name": "agreementsCounter",
      "outputs": [
        {
          "name": "",
          "type": "uint256"
        }
      ],
      "payable": false,
      "stateMutability": "view",
      "type": "function",
      "signature": "0xfba62bda"
    },
    {
      "inputs": [],
      "payable": false,
      "stateMutability": "nonpayable",
      "type": "constructor",
      "signature": "constructor"
    },
    {
      "anonymous": false,
      "inputs": [
        {
          "indexed": false,
          "name": "id",
          "type": "uint256"
        },
        {
          "indexed": false,
          "name": "content",
          "type": "string"
        },
        {
          "indexed": false,
          "name": "completed",
          "type": "bool"
        }
      ],
      "name": "AgreementCreated",
      "type": "event",
      "signature": "0xbc9ab77493048d1ca8519c82892772264b8c73d3bf69000fe6d8f172ccfc3fc1"
    },
    {
      "constant": false,
      "inputs": [
        {
          "name": "_content",
          "type": "string"
        }
      ],
      "name": "createNewAgreement",
      "outputs": [],
      "payable": false,
      "stateMutability": "nonpayable",
      "type": "function",
      "signature": "0x62013dfb"
    }
  ],
  "bytecode": "0x60806040526000805534801561001457600080fd5b50610501806100246000396000f3fe608060405260043610610057576000357c0100000000000000000000000000000000000000000000000000000000900463ffffffff16806362013dfb1461005c578063bd14de9614610124578063fba62bda146101ea575b600080fd5b34801561006857600080fd5b506101226004803603602081101561007f57600080fd5b810190808035906020019064010000000081111561009c57600080fd5b8201836020820111156100ae57600080fd5b803590602001918460018302840111640100000000831117156100d057600080fd5b91908080601f016020809104026020016040519081016040528093929190818152602001838380828437600081840152601f19601f820116905080830192505050505050509192919290505050610215565b005b34801561013057600080fd5b5061015d6004803603602081101561014757600080fd5b810190808035906020019092919050505061035b565b604051808481526020018060200183151515158152602001828103825284818151815260200191508051906020019080838360005b838110156101ad578082015181840152602081019050610192565b50505050905090810190601f1680156101da5780820380516001836020036101000a031916815260200191505b5094505050505060405180910390f35b3480156101f657600080fd5b506101ff61042a565b6040518082815260200191505060405180910390f35b60008081548092919060010191905055506060604051908101604052806000548152602001828152602001600015158152506001600080548152602001908152602001600020600082015181600001556020820151816001019080519060200190610281929190610430565b5060408201518160020160006101000a81548160ff0219169083151502179055509050507fbc9ab77493048d1ca8519c82892772264b8c73d3bf69000fe6d8f172ccfc3fc1600054826000604051808481526020018060200183151515158152602001828103825284818151815260200191508051906020019080838360005b8381101561031c578082015181840152602081019050610301565b50505050905090810190601f1680156103495780820380516001836020036101000a031916815260200191505b5094505050505060405180910390a150565b6001602052806000526040600020600091509050806000015490806001018054600181600116156101000203166002900480601f01602080910402602001604051908101604052809291908181526020018280546001816001161561010002031660029004801561040d5780601f106103e25761010080835404028352916020019161040d565b820191906000526020600020905b8154815290600101906020018083116103f057829003601f168201915b5050505050908060020160009054906101000a900460ff16905083565b60005481565b828054600181600116156101000203166002900490600052602060002090601f016020900481019282601f1061047157805160ff191683800117855561049f565b8280016001018555821561049f579182015b8281111561049e578251825591602001919060010190610483565b5b5090506104ac91906104b0565b5090565b6104d291905b808211156104ce5760008160009055506001016104b6565b5090565b9056fea165627a7a72305820deb16f139cf085a609ba3a68946098c92c4e0dab845dcdfedc9c494b665ab3860029",
  "source": "pragma solidity ^0.5.0;\n\ncontract Sample {\n\tuint public agreementsCounter = 0;\n    struct Agreement {\n\t    uint id;\n\t    string content;\n\t    bool completed;\n\t}\n\n\tmapping(uint => Agreement) public agreements;\n\n\tconstructor() public {\n    }\n\n    event AgreementCreated(\n\t    uint id,\n\t    string content,\n\t    bool completed\n\t);\n\n\tfunction createNewAgreement(string memory _content) public {\n\t    agreementsCounter ++;\n\t    agreements[agreementsCounter] = Agreement(agreementsCounter, _content, false);\n\t    emit AgreementCreated(agreementsCounter, _content, false);\n\t}\n}",
  "sourcePath": "/Users/max/Smart-Wallet-Android/sample-smart-contract/contracts/Sample.sol",
  "compiler": {
    "name": "solc",
    "version": "0.5.0+commit.1d4f565a.Emscripten.clang"
  },
  "schemaVersion": "3.0.1",
  "updatedAt": "2019-10-19T18:36:42.243Z",
  "devdoc": {
    "methods": {}
  },
  "userdoc": {
    "methods": {}
  }
}